{
  "_format": "hh-sol-artifact-1",
  "contractName": "Twitter",
  "sourceName": "contracts/Twitter.sol",
  "abi": [
    {
      "inputs": [
        {
          "internalType": "string",
          "name": "_tweet",
          "type": "string"
        }
      ],
      "name": "createTweet",
      "outputs": [],
      "stateMutability": "nonpayable",
      "type": "function"
    },
    {
      "inputs": [
        {
          "internalType": "address",
          "name": "_owner",
          "type": "address"
        }
      ],
      "name": "getAllTweets",
      "outputs": [
        {
          "components": [
            {
              "internalType": "address",
              "name": "author",
              "type": "address"
            },
            {
              "internalType": "string",
              "name": "content",
              "type": "string"
            },
            {
              "internalType": "uint256",
              "name": "timestamp",
              "type": "uint256"
            },
            {
              "internalType": "uint256",
              "name": "likes",
              "type": "uint256"
            }
          ],
          "internalType": "struct Twitter.Tweet[]",
          "name": "",
          "type": "tuple[]"
        }
      ],
      "stateMutability": "view",
      "type": "function"
    },
    {
      "inputs": [
        {
          "internalType": "address",
          "name": "_owner",
          "type": "address"
        },
        {
          "internalType": "uint256",
          "name": "_i",
          "type": "uint256"
        }
      ],
      "name": "getTweet",
      "outputs": [
        {
          "components": [
            {
              "internalType": "address",
              "name": "author",
              "type": "address"
            },
            {
              "internalType": "string",
              "name": "content",
              "type": "string"
            },
            {
              "internalType": "uint256",
              "name": "timestamp",
              "type": "uint256"
            },
            {
              "internalType": "uint256",
              "name": "likes",
              "type": "uint256"
            }
          ],
          "internalType": "struct Twitter.Tweet",
          "name": "",
          "type": "tuple"
        }
      ],
      "stateMutability": "view",
      "type": "function"
    },
    {
      "inputs": [
        {
          "internalType": "address",
          "name": "",
          "type": "address"
        },
        {
          "internalType": "uint256",
          "name": "",
          "type": "uint256"
        }
      ],
      "name": "tweet",
      "outputs": [
        {
          "internalType": "address",
          "name": "author",
          "type": "address"
        },
        {
          "internalType": "string",
          "name": "content",
          "type": "string"
        },
        {
          "internalType": "uint256",
          "name": "timestamp",
          "type": "uint256"
        },
        {
          "internalType": "uint256",
          "name": "likes",
          "type": "uint256"
        }
      ],
      "stateMutability": "view",
      "type": "function"
    }
  ],
  "bytecode": "0x608060405234801561001057600080fd5b50610f60806100206000396000f3fe608060405234801561001057600080fd5b506004361061004c5760003560e01c8063112f54e31461005157806312e7ee1c146100815780637c9cd2bc146100b15780639531656f146100cd575b600080fd5b61006b60048036038101906100669190610704565b610100565b6040516100789190610855565b60405180910390f35b61009b60048036038101906100969190610877565b610275565b6040516100a891906109c9565b60405180910390f35b6100cb60048036038101906100c69190610b20565b61040e565b005b6100e760048036038101906100e29190610704565b610529565b6040516100f79493929190610bd1565b60405180910390f35b61010861061e565b6000808473ffffffffffffffffffffffffffffffffffffffff1673ffffffffffffffffffffffffffffffffffffffff168152602001908152602001600020828154811061015857610157610c1d565b5b90600052602060002090600402016040518060800160405290816000820160009054906101000a900473ffffffffffffffffffffffffffffffffffffffff1673ffffffffffffffffffffffffffffffffffffffff1673ffffffffffffffffffffffffffffffffffffffff1681526020016001820180546101d790610c7b565b80601f016020809104026020016040519081016040528092919081815260200182805461020390610c7b565b80156102505780601f1061022557610100808354040283529160200191610250565b820191906000526020600020905b81548152906001019060200180831161023357829003601f168201915b5050505050815260200160028201548152602001600382015481525050905092915050565b60606000808373ffffffffffffffffffffffffffffffffffffffff1673ffffffffffffffffffffffffffffffffffffffff168152602001908152602001600020805480602002602001604051908101604052809291908181526020016000905b8282101561040357838290600052602060002090600402016040518060800160405290816000820160009054906101000a900473ffffffffffffffffffffffffffffffffffffffff1673ffffffffffffffffffffffffffffffffffffffff1673ffffffffffffffffffffffffffffffffffffffff16815260200160018201805461035e90610c7b565b80601f016020809104026020016040519081016040528092919081815260200182805461038a90610c7b565b80156103d75780601f106103ac576101008083540402835291602001916103d7565b820191906000526020600020905b8154815290600101906020018083116103ba57829003601f168201915b5050505050815260200160028201548152602001600382015481525050815260200190600101906102d5565b505050509050919050565b600060405180608001604052803373ffffffffffffffffffffffffffffffffffffffff168152602001838152602001428152602001600081525090506000803373ffffffffffffffffffffffffffffffffffffffff1673ffffffffffffffffffffffffffffffffffffffff16815260200190815260200160002081908060018154018082558091505060019003906000526020600020906004020160009091909190915060008201518160000160006101000a81548173ffffffffffffffffffffffffffffffffffffffff021916908373ffffffffffffffffffffffffffffffffffffffff160217905550602082015181600101908161050e9190610e58565b50604082015181600201556060820151816003015550505050565b6000602052816000526040600020818154811061054557600080fd5b9060005260206000209060040201600091509150508060000160009054906101000a900473ffffffffffffffffffffffffffffffffffffffff169080600101805461058f90610c7b565b80601f01602080910402602001604051908101604052809291908181526020018280546105bb90610c7b565b80156106085780601f106105dd57610100808354040283529160200191610608565b820191906000526020600020905b8154815290600101906020018083116105eb57829003601f168201915b5050505050908060020154908060030154905084565b6040518060800160405280600073ffffffffffffffffffffffffffffffffffffffff1681526020016060815260200160008152602001600081525090565b6000604051905090565b600080fd5b600080fd5b600073ffffffffffffffffffffffffffffffffffffffff82169050919050565b600061069b82610670565b9050919050565b6106ab81610690565b81146106b657600080fd5b50565b6000813590506106c8816106a2565b92915050565b6000819050919050565b6106e1816106ce565b81146106ec57600080fd5b50565b6000813590506106fe816106d8565b92915050565b6000806040838503121561071b5761071a610666565b5b6000610729858286016106b9565b925050602061073a858286016106ef565b9150509250929050565b61074d81610690565b82525050565b600081519050919050565b600082825260208201905092915050565b60005b8381101561078d578082015181840152602081019050610772565b60008484015250505050565b6000601f19601f8301169050919050565b60006107b582610753565b6107bf818561075e565b93506107cf81856020860161076f565b6107d881610799565b840191505092915050565b6107ec816106ce565b82525050565b600060808301600083015161080a6000860182610744565b506020830151848203602086015261082282826107aa565b915050604083015161083760408601826107e3565b50606083015161084a60608601826107e3565b508091505092915050565b6000602082019050818103600083015261086f81846107f2565b905092915050565b60006020828403121561088d5761088c610666565b5b600061089b848285016106b9565b91505092915050565b600081519050919050565b600082825260208201905092915050565b6000819050602082019050919050565b60006080830160008301516108e86000860182610744565b506020830151848203602086015261090082826107aa565b915050604083015161091560408601826107e3565b50606083015161092860608601826107e3565b508091505092915050565b600061093f83836108d0565b905092915050565b6000602082019050919050565b600061095f826108a4565b61096981856108af565b93508360208202850161097b856108c0565b8060005b858110156109b757848403895281516109988582610933565b94506109a383610947565b925060208a0199505060018101905061097f565b50829750879550505050505092915050565b600060208201905081810360008301526109e38184610954565b905092915050565b600080fd5b600080fd5b7f4e487b7100000000000000000000000000000000000000000000000000000000600052604160045260246000fd5b610a2d82610799565b810181811067ffffffffffffffff82111715610a4c57610a4b6109f5565b5b80604052505050565b6000610a5f61065c565b9050610a6b8282610a24565b919050565b600067ffffffffffffffff821115610a8b57610a8a6109f5565b5b610a9482610799565b9050602081019050919050565b82818337600083830152505050565b6000610ac3610abe84610a70565b610a55565b905082815260208101848484011115610adf57610ade6109f0565b5b610aea848285610aa1565b509392505050565b600082601f830112610b0757610b066109eb565b5b8135610b17848260208601610ab0565b91505092915050565b600060208284031215610b3657610b35610666565b5b600082013567ffffffffffffffff811115610b5457610b5361066b565b5b610b6084828501610af2565b91505092915050565b610b7281610690565b82525050565b600082825260208201905092915050565b6000610b9482610753565b610b9e8185610b78565b9350610bae81856020860161076f565b610bb781610799565b840191505092915050565b610bcb816106ce565b82525050565b6000608082019050610be66000830187610b69565b8181036020830152610bf88186610b89565b9050610c076040830185610bc2565b610c146060830184610bc2565b95945050505050565b7f4e487b7100000000000000000000000000000000000000000000000000000000600052603260045260246000fd5b7f4e487b7100000000000000000000000000000000000000000000000000000000600052602260045260246000fd5b60006002820490506001821680610c9357607f821691505b602082108103610ca657610ca5610c4c565b5b50919050565b60008190508160005260206000209050919050565b60006020601f8301049050919050565b600082821b905092915050565b600060088302610d0e7fffffffffffffffffffffffffffffffffffffffffffffffffffffffffffffffff82610cd1565b610d188683610cd1565b95508019841693508086168417925050509392505050565b6000819050919050565b6000610d55610d50610d4b846106ce565b610d30565b6106ce565b9050919050565b6000819050919050565b610d6f83610d3a565b610d83610d7b82610d5c565b848454610cde565b825550505050565b600090565b610d98610d8b565b610da3818484610d66565b505050565b5b81811015610dc757610dbc600082610d90565b600181019050610da9565b5050565b601f821115610e0c57610ddd81610cac565b610de684610cc1565b81016020851015610df5578190505b610e09610e0185610cc1565b830182610da8565b50505b505050565b600082821c905092915050565b6000610e2f60001984600802610e11565b1980831691505092915050565b6000610e488383610e1e565b9150826002028217905092915050565b610e6182610753565b67ffffffffffffffff811115610e7a57610e796109f5565b5b610e848254610c7b565b610e8f828285610dcb565b600060209050601f831160018114610ec25760008415610eb0578287015190505b610eba8582610e3c565b865550610f22565b601f198416610ed086610cac565b60005b82811015610ef857848901518255600182019150602085019450602081019050610ed3565b86831015610f155784890151610f11601f891682610e1e565b8355505b6001600288020188555050505b50505050505056fea264697066735822122079085f134c0b88724b4d30d351218202d9b8339a511df9d90fe9ce97249008aa64736f6c63430008180033",
  "linkReferences": {},
  "deployedLinkReferences": {}
}